{
  "_format": "hh-sol-artifact-1",
  "contractName": "KungfuPanda",
  "sourceName": "contracts/KungfuPanda.sol",
  "abi": [
    {
      "inputs": [
        {
          "internalType": "string[]",
          "name": "characterNames",
          "type": "string[]"
        },
        {
          "internalType": "string[]",
          "name": "characterImageURIs",
          "type": "string[]"
        },
        {
          "internalType": "uint256[]",
          "name": "characterHp",
          "type": "uint256[]"
        },
        {
          "internalType": "uint256[]",
          "name": "characterAttackDmg",
          "type": "uint256[]"
        },
        {
          "internalType": "string",
          "name": "bossName",
          "type": "string"
        },
        {
          "internalType": "string",
          "name": "bossImageURI",
          "type": "string"
        },
        {
          "internalType": "uint256",
          "name": "bossHp",
          "type": "uint256"
        },
        {
          "internalType": "uint256",
          "name": "bossAttackDamage",
          "type": "uint256"
        }
      ],
      "stateMutability": "nonpayable",
      "type": "constructor"
    },
    {
      "anonymous": false,
      "inputs": [
        {
          "indexed": true,
          "internalType": "address",
          "name": "owner",
          "type": "address"
        },
        {
          "indexed": true,
          "internalType": "address",
          "name": "approved",
          "type": "address"
        },
        {
          "indexed": true,
          "internalType": "uint256",
          "name": "tokenId",
          "type": "uint256"
        }
      ],
      "name": "Approval",
      "type": "event"
    },
    {
      "anonymous": false,
      "inputs": [
        {
          "indexed": true,
          "internalType": "address",
          "name": "owner",
          "type": "address"
        },
        {
          "indexed": true,
          "internalType": "address",
          "name": "operator",
          "type": "address"
        },
        {
          "indexed": false,
          "internalType": "bool",
          "name": "approved",
          "type": "bool"
        }
      ],
      "name": "ApprovalForAll",
      "type": "event"
    },
    {
      "anonymous": false,
      "inputs": [
        {
          "indexed": false,
          "internalType": "address",
          "name": "sender",
          "type": "address"
        },
        {
          "indexed": false,
          "internalType": "uint256",
          "name": "newBossHp",
          "type": "uint256"
        },
        {
          "indexed": false,
          "internalType": "uint256",
          "name": "newPlayerHp",
          "type": "uint256"
        }
      ],
      "name": "AttackComplete",
      "type": "event"
    },
    {
      "anonymous": false,
      "inputs": [
        {
          "indexed": false,
          "internalType": "address",
          "name": "sender",
          "type": "address"
        },
        {
          "indexed": false,
          "internalType": "uint256",
          "name": "tokenId",
          "type": "uint256"
        },
        {
          "indexed": false,
          "internalType": "uint256",
          "name": "characterIndex",
          "type": "uint256"
        }
      ],
      "name": "CharacterNFTMinted",
      "type": "event"
    },
    {
      "anonymous": false,
      "inputs": [
        {
          "indexed": true,
          "internalType": "address",
          "name": "from",
          "type": "address"
        },
        {
          "indexed": true,
          "internalType": "address",
          "name": "to",
          "type": "address"
        },
        {
          "indexed": true,
          "internalType": "uint256",
          "name": "tokenId",
          "type": "uint256"
        }
      ],
      "name": "Transfer",
      "type": "event"
    },
    {
      "inputs": [
        {
          "internalType": "address",
          "name": "to",
          "type": "address"
        },
        {
          "internalType": "uint256",
          "name": "tokenId",
          "type": "uint256"
        }
      ],
      "name": "approve",
      "outputs": [],
      "stateMutability": "nonpayable",
      "type": "function"
    },
    {
      "inputs": [],
      "name": "attackBoss",
      "outputs": [],
      "stateMutability": "nonpayable",
      "type": "function"
    },
    {
      "inputs": [
        {
          "internalType": "address",
          "name": "owner",
          "type": "address"
        }
      ],
      "name": "balanceOf",
      "outputs": [
        {
          "internalType": "uint256",
          "name": "",
          "type": "uint256"
        }
      ],
      "stateMutability": "view",
      "type": "function"
    },
    {
      "inputs": [],
      "name": "bigBoss",
      "outputs": [
        {
          "internalType": "string",
          "name": "name",
          "type": "string"
        },
        {
          "internalType": "string",
          "name": "imageURI",
          "type": "string"
        },
        {
          "internalType": "uint256",
          "name": "hp",
          "type": "uint256"
        },
        {
          "internalType": "uint256",
          "name": "maxHp",
          "type": "uint256"
        },
        {
          "internalType": "uint256",
          "name": "attackDamage",
          "type": "uint256"
        }
      ],
      "stateMutability": "view",
      "type": "function"
    },
    {
      "inputs": [],
      "name": "checkIfUserHasNFT",
      "outputs": [
        {
          "components": [
            {
              "internalType": "uint256",
              "name": "characterIndex",
              "type": "uint256"
            },
            {
              "internalType": "string",
              "name": "name",
              "type": "string"
            },
            {
              "internalType": "string",
              "name": "imageURI",
              "type": "string"
            },
            {
              "internalType": "uint256",
              "name": "hp",
              "type": "uint256"
            },
            {
              "internalType": "uint256",
              "name": "maxHp",
              "type": "uint256"
            },
            {
              "internalType": "uint256",
              "name": "attackDamage",
              "type": "uint256"
            }
          ],
          "internalType": "struct KungfuPanda.CharacterAttributes",
          "name": "",
          "type": "tuple"
        }
      ],
      "stateMutability": "view",
      "type": "function"
    },
    {
      "inputs": [],
      "name": "getAllDefaultCharacters",
      "outputs": [
        {
          "components": [
            {
              "internalType": "uint256",
              "name": "characterIndex",
              "type": "uint256"
            },
            {
              "internalType": "string",
              "name": "name",
              "type": "string"
            },
            {
              "internalType": "string",
              "name": "imageURI",
              "type": "string"
            },
            {
              "internalType": "uint256",
              "name": "hp",
              "type": "uint256"
            },
            {
              "internalType": "uint256",
              "name": "maxHp",
              "type": "uint256"
            },
            {
              "internalType": "uint256",
              "name": "attackDamage",
              "type": "uint256"
            }
          ],
          "internalType": "struct KungfuPanda.CharacterAttributes[]",
          "name": "",
          "type": "tuple[]"
        }
      ],
      "stateMutability": "view",
      "type": "function"
    },
    {
      "inputs": [
        {
          "internalType": "uint256",
          "name": "tokenId",
          "type": "uint256"
        }
      ],
      "name": "getApproved",
      "outputs": [
        {
          "internalType": "address",
          "name": "",
          "type": "address"
        }
      ],
      "stateMutability": "view",
      "type": "function"
    },
    {
      "inputs": [],
      "name": "getBigBoss",
      "outputs": [
        {
          "components": [
            {
              "internalType": "string",
              "name": "name",
              "type": "string"
            },
            {
              "internalType": "string",
              "name": "imageURI",
              "type": "string"
            },
            {
              "internalType": "uint256",
              "name": "hp",
              "type": "uint256"
            },
            {
              "internalType": "uint256",
              "name": "maxHp",
              "type": "uint256"
            },
            {
              "internalType": "uint256",
              "name": "attackDamage",
              "type": "uint256"
            }
          ],
          "internalType": "struct KungfuPanda.BigBoss",
          "name": "",
          "type": "tuple"
        }
      ],
      "stateMutability": "view",
      "type": "function"
    },
    {
      "inputs": [
        {
          "internalType": "address",
          "name": "owner",
          "type": "address"
        },
        {
          "internalType": "address",
          "name": "operator",
          "type": "address"
        }
      ],
      "name": "isApprovedForAll",
      "outputs": [
        {
          "internalType": "bool",
          "name": "",
          "type": "bool"
        }
      ],
      "stateMutability": "view",
      "type": "function"
    },
    {
      "inputs": [
        {
          "internalType": "uint256",
          "name": "_characterIndex",
          "type": "uint256"
        }
      ],
      "name": "mintCharacterNFT",
      "outputs": [],
      "stateMutability": "nonpayable",
      "type": "function"
    },
    {
      "inputs": [],
      "name": "name",
      "outputs": [
        {
          "internalType": "string",
          "name": "",
          "type": "string"
        }
      ],
      "stateMutability": "view",
      "type": "function"
    },
    {
      "inputs": [
        {
          "internalType": "uint256",
          "name": "",
          "type": "uint256"
        }
      ],
      "name": "nftHolderAttributes",
      "outputs": [
        {
          "internalType": "uint256",
          "name": "characterIndex",
          "type": "uint256"
        },
        {
          "internalType": "string",
          "name": "name",
          "type": "string"
        },
        {
          "internalType": "string",
          "name": "imageURI",
          "type": "string"
        },
        {
          "internalType": "uint256",
          "name": "hp",
          "type": "uint256"
        },
        {
          "internalType": "uint256",
          "name": "maxHp",
          "type": "uint256"
        },
        {
          "internalType": "uint256",
          "name": "attackDamage",
          "type": "uint256"
        }
      ],
      "stateMutability": "view",
      "type": "function"
    },
    {
      "inputs": [
        {
          "internalType": "address",
          "name": "",
          "type": "address"
        }
      ],
      "name": "nftHolders",
      "outputs": [
        {
          "internalType": "uint256",
          "name": "",
          "type": "uint256"
        }
      ],
      "stateMutability": "view",
      "type": "function"
    },
    {
      "inputs": [
        {
          "internalType": "uint256",
          "name": "tokenId",
          "type": "uint256"
        }
      ],
      "name": "ownerOf",
      "outputs": [
        {
          "internalType": "address",
          "name": "",
          "type": "address"
        }
      ],
      "stateMutability": "view",
      "type": "function"
    },
    {
      "inputs": [
        {
          "internalType": "address",
          "name": "from",
          "type": "address"
        },
        {
          "internalType": "address",
          "name": "to",
          "type": "address"
        },
        {
          "internalType": "uint256",
          "name": "tokenId",
          "type": "uint256"
        }
      ],
      "name": "safeTransferFrom",
      "outputs": [],
      "stateMutability": "nonpayable",
      "type": "function"
    },
    {
      "inputs": [
        {
          "internalType": "address",
          "name": "from",
          "type": "address"
        },
        {
          "internalType": "address",
          "name": "to",
          "type": "address"
        },
        {
          "internalType": "uint256",
          "name": "tokenId",
          "type": "uint256"
        },
        {
          "internalType": "bytes",
          "name": "data",
          "type": "bytes"
        }
      ],
      "name": "safeTransferFrom",
      "outputs": [],
      "stateMutability": "nonpayable",
      "type": "function"
    },
    {
      "inputs": [
        {
          "internalType": "address",
          "name": "operator",
          "type": "address"
        },
        {
          "internalType": "bool",
          "name": "approved",
          "type": "bool"
        }
      ],
      "name": "setApprovalForAll",
      "outputs": [],
      "stateMutability": "nonpayable",
      "type": "function"
    },
    {
      "inputs": [
        {
          "internalType": "bytes4",
          "name": "interfaceId",
          "type": "bytes4"
        }
      ],
      "name": "supportsInterface",
      "outputs": [
        {
          "internalType": "bool",
          "name": "",
          "type": "bool"
        }
      ],
      "stateMutability": "view",
      "type": "function"
    },
    {
      "inputs": [],
      "name": "symbol",
      "outputs": [
        {
          "internalType": "string",
          "name": "",
          "type": "string"
        }
      ],
      "stateMutability": "view",
      "type": "function"
    },
    {
      "inputs": [
        {
          "internalType": "uint256",
          "name": "_tokenId",
          "type": "uint256"
        }
      ],
      "name": "tokenURI",
      "outputs": [
        {
          "internalType": "string",
          "name": "",
          "type": "string"
        }
      ],
      "stateMutability": "view",
      "type": "function"
    },
    {
      "inputs": [
        {
          "internalType": "address",
          "name": "from",
          "type": "address"
        },
        {
          "internalType": "address",
          "name": "to",
          "type": "address"
        },
        {
          "internalType": "uint256",
          "name": "tokenId",
          "type": "uint256"
        }
      ],
      "name": "transferFrom",
      "outputs": [],
      "stateMutability": "nonpayable",
      "type": "function"
    }
  ],
  "bytecode": "0x60806040526000600f553480156200001657600080fd5b506040516200642a3803806200642a83398181016040528101906200003c919062000a90565b6040518060400160405280600781526020017f4d617374657273000000000000000000000000000000000000000000000000008152506040518060400160405280600481526020017f4d415354000000000000000000000000000000000000000000000000000000008152508160009081620000b9919062000e54565b508060019081620000cb919062000e54565b5050506040518060a0016040528085815260200184815260200183815260200183815260200182815250600a60008201518160000190816200010e919062000e54565b50602082015181600101908162000126919062000e54565b50604082015181600201556060820151816003015560808201518160040155905050620002a96040518060600160405280602a815260200162006400602a9139600a6000018054620001789062000c4d565b80601f0160208091040260200160405190810160405280929190818152602001828054620001a69062000c4d565b8015620001f75780601f10620001cb57610100808354040283529160200191620001f7565b820191906000526020600020905b815481529060010190602001808311620001d957829003601f168201915b5050505050600a60020154600a6001018054620002149062000c4d565b80601f0160208091040260200160405190810160405280929190818152602001828054620002429062000c4d565b8015620002935780601f10620002675761010080835404028352916020019162000293565b820191906000526020600020905b8154815290600101906020018083116200027557829003601f168201915b50505050506200060560201b620021241760201c565b60005b8851811015620005df5760076040518060c001604052808381526020018b8481518110620002df57620002de62000f3b565b5b602002602001015181526020018a848151811062000302576200030162000f3b565b5b6020026020010151815260200189848151811062000325576200032462000f3b565b5b6020026020010151815260200189848151811062000348576200034762000f3b565b5b602002602001015181526020018884815181106200036b576200036a62000f3b565b5b60200260200101518152509080600181540180825580915050600190039060005260206000209060060201600090919091909150600082015181600001556020820151816001019081620003c0919062000e54565b506040820151816002019081620003d8919062000e54565b50606082015181600301556080820151816004015560a08201518160050155505060006007828154811062000412576200041162000f3b565b5b90600052602060002090600602016040518060c001604052908160008201548152602001600182018054620004479062000c4d565b80601f0160208091040260200160405190810160405280929190818152602001828054620004759062000c4d565b8015620004c65780601f106200049a57610100808354040283529160200191620004c6565b820191906000526020600020905b815481529060010190602001808311620004a857829003601f168201915b50505050508152602001600282018054620004e19062000c4d565b80601f01602080910402602001604051908101604052809291908181526020018280546200050f9062000c4d565b8015620005605780601f10620005345761010080835404028352916020019162000560565b820191906000526020600020905b8154815290600101906020018083116200054257829003601f168201915b5050505050815260200160038201548152602001600482015481526020016005820154815250509050620005c7604051806060016040528060258152602001620063db602591398260200151836060015184604001516200060560201b620021241760201c565b50600181620005d7919062000f99565b9050620002ac565b50620005f76006620006b160201b620021c61760201c565b505050505050505062001099565b620006ab8484848460405160240162000622949392919062001037565b6040516020818303038152906040527f5d1a971a000000000000000000000000000000000000000000000000000000007bffffffffffffffffffffffffffffffffffffffffffffffffffffffff19166020820180517bffffffffffffffffffffffffffffffffffffffffffffffffffffffff8381831617835250505050620006c760201b60201c565b50505050565b6001816000016000828254019250508190555050565b60008151905060006a636f6e736f6c652e6c6f679050602083016000808483855afa5050505050565b6000604051905090565b600080fd5b600080fd5b600080fd5b6000601f19601f8301169050919050565b7f4e487b7100000000000000000000000000000000000000000000000000000000600052604160045260246000fd5b620007548262000709565b810181811067ffffffffffffffff821117156200077657620007756200071a565b5b80604052505050565b60006200078b620006f0565b905062000799828262000749565b919050565b600067ffffffffffffffff821115620007bc57620007bb6200071a565b5b602082029050602081019050919050565b600080fd5b600080fd5b600067ffffffffffffffff821115620007f557620007f46200071a565b5b620008008262000709565b9050602081019050919050565b60005b838110156200082d57808201518184015260208101905062000810565b60008484015250505050565b6000620008506200084a84620007d7565b6200077f565b9050828152602081018484840111156200086f576200086e620007d2565b5b6200087c8482856200080d565b509392505050565b600082601f8301126200089c576200089b62000704565b5b8151620008ae84826020860162000839565b91505092915050565b6000620008ce620008c8846200079e565b6200077f565b90508083825260208201905060208402830185811115620008f457620008f3620007cd565b5b835b818110156200094257805167ffffffffffffffff8111156200091d576200091c62000704565b5b8086016200092c898262000884565b85526020850194505050602081019050620008f6565b5050509392505050565b600082601f83011262000964576200096362000704565b5b815162000976848260208601620008b7565b91505092915050565b600067ffffffffffffffff8211156200099d576200099c6200071a565b5b602082029050602081019050919050565b6000819050919050565b620009c381620009ae565b8114620009cf57600080fd5b50565b600081519050620009e381620009b8565b92915050565b600062000a00620009fa846200097f565b6200077f565b9050808382526020820190506020840283018581111562000a265762000a25620007cd565b5b835b8181101562000a53578062000a3e8882620009d2565b84526020840193505060208101905062000a28565b5050509392505050565b600082601f83011262000a755762000a7462000704565b5b815162000a87848260208601620009e9565b91505092915050565b600080600080600080600080610100898b03121562000ab45762000ab3620006fa565b5b600089015167ffffffffffffffff81111562000ad55762000ad4620006ff565b5b62000ae38b828c016200094c565b985050602089015167ffffffffffffffff81111562000b075762000b06620006ff565b5b62000b158b828c016200094c565b975050604089015167ffffffffffffffff81111562000b395762000b38620006ff565b5b62000b478b828c0162000a5d565b965050606089015167ffffffffffffffff81111562000b6b5762000b6a620006ff565b5b62000b798b828c0162000a5d565b955050608089015167ffffffffffffffff81111562000b9d5762000b9c620006ff565b5b62000bab8b828c0162000884565b94505060a089015167ffffffffffffffff81111562000bcf5762000bce620006ff565b5b62000bdd8b828c0162000884565b93505060c062000bf08b828c01620009d2565b92505060e062000c038b828c01620009d2565b9150509295985092959890939650565b600081519050919050565b7f4e487b7100000000000000000000000000000000000000000000000000000000600052602260045260246000fd5b6000600282049050600182168062000c6657607f821691505b60208210810362000c7c5762000c7b62000c1e565b5b50919050565b60008190508160005260206000209050919050565b60006020601f8301049050919050565b600082821b905092915050565b60006008830262000ce67fffffffffffffffffffffffffffffffffffffffffffffffffffffffffffffffff8262000ca7565b62000cf2868362000ca7565b95508019841693508086168417925050509392505050565b6000819050919050565b600062000d3562000d2f62000d2984620009ae565b62000d0a565b620009ae565b9050919050565b6000819050919050565b62000d518362000d14565b62000d6962000d608262000d3c565b84845462000cb4565b825550505050565b600090565b62000d8062000d71565b62000d8d81848462000d46565b505050565b5b8181101562000db55762000da960008262000d76565b60018101905062000d93565b5050565b601f82111562000e045762000dce8162000c82565b62000dd98462000c97565b8101602085101562000de9578190505b62000e0162000df88562000c97565b83018262000d92565b50505b505050565b600082821c905092915050565b600062000e296000198460080262000e09565b1980831691505092915050565b600062000e44838362000e16565b9150826002028217905092915050565b62000e5f8262000c13565b67ffffffffffffffff81111562000e7b5762000e7a6200071a565b5b62000e87825462000c4d565b62000e9482828562000db9565b600060209050601f83116001811462000ecc576000841562000eb7578287015190505b62000ec3858262000e36565b86555062000f33565b601f19841662000edc8662000c82565b60005b8281101562000f065784890151825560018201915060208501945060208101905062000edf565b8683101562000f26578489015162000f22601f89168262000e16565b8355505b6001600288020188555050505b505050505050565b7f4e487b7100000000000000000000000000000000000000000000000000000000600052603260045260246000fd5b7f4e487b7100000000000000000000000000000000000000000000000000000000600052601160045260246000fd5b600062000fa682620009ae565b915062000fb383620009ae565b925082820190508082111562000fce5762000fcd62000f6a565b5b92915050565b600082825260208201905092915050565b600062000ff28262000c13565b62000ffe818562000fd4565b9350620010108185602086016200080d565b6200101b8162000709565b840191505092915050565b6200103181620009ae565b82525050565b6000608082019050818103600083015262001053818762000fe5565b9050818103602083015262001069818662000fe5565b90506200107a604083018562001026565b81810360608301526200108e818462000fe5565b905095945050505050565b61533280620010a96000396000f3fe608060405234801561001057600080fd5b50600436106101375760003560e01c806395d89b41116100b8578063b953084e1161007c578063b953084e14610369578063c87b56dd14610387578063c8cf27f4146103b7578063d4f24c5b146103d5578063e985e9c5146103df578063f8b81ef71461040f57610137565b806395d89b41146102bc57806398da4c95146102da578063a22cb4651461030f578063a9c326791461032b578063b88d4fde1461034d57610137565b806323b872dd116100ff57806323b872dd146101f457806342842e0e146102105780636352211e1461022c57806370a082311461025c5780637df124a11461028c57610137565b806301ffc9a71461013c5780630665f9611461016c57806306fdde031461018a578063081812fc146101a8578063095ea7b3146101d8575b600080fd5b61015660048036038101906101519190613532565b61042b565b604051610163919061357a565b60405180910390f35b61017461050d565b60405161018191906136bb565b60405180910390f35b610192610669565b60405161019f9190613727565b60405180910390f35b6101c260048036038101906101bd9190613775565b6106fb565b6040516101cf91906137e3565b60405180910390f35b6101f260048036038101906101ed919061382a565b610741565b005b61020e6004803603810190610209919061386a565b610858565b005b61022a6004803603810190610225919061386a565b6108b8565b005b61024660048036038101906102419190613775565b6108d8565b60405161025391906137e3565b60405180910390f35b610276600480360381019061027191906138bd565b610989565b60405161028391906138f9565b60405180910390f35b6102a660048036038101906102a191906138bd565b610a40565b6040516102b391906138f9565b60405180910390f35b6102c4610a58565b6040516102d19190613727565b60405180910390f35b6102f460048036038101906102ef9190613775565b610aea565b60405161030696959493929190613914565b60405180910390f35b610329600480360381019061032491906139af565b610c36565b005b610333610c4c565b6040516103449594939291906139ef565b60405180910390f35b61036760048036038101906103629190613b85565b610d80565b005b610371610de2565b60405161037e9190613d5a565b60405180910390f35b6103a1600480360381019061039c9190613775565b610f8d565b6040516103ae9190613727565b60405180910390f35b6103bf6111a8565b6040516103cc9190613e0c565b60405180910390f35b6103dd611380565b005b6103f960048036038101906103f49190613e2e565b611d68565b604051610406919061357a565b60405180910390f35b61042960048036038101906104249190613775565b611dfc565b005b60007f80ac58cd000000000000000000000000000000000000000000000000000000007bffffffffffffffffffffffffffffffffffffffffffffffffffffffff1916827bffffffffffffffffffffffffffffffffffffffffffffffffffffffff191614806104f657507f5b5e139f000000000000000000000000000000000000000000000000000000007bffffffffffffffffffffffffffffffffffffffffffffffffffffffff1916827bffffffffffffffffffffffffffffffffffffffffffffffffffffffff1916145b806105065750610505826121dc565b5b9050919050565b610515613461565b600a6040518060a001604052908160008201805461053290613e9d565b80601f016020809104026020016040519081016040528092919081815260200182805461055e90613e9d565b80156105ab5780601f10610580576101008083540402835291602001916105ab565b820191906000526020600020905b81548152906001019060200180831161058e57829003601f168201915b505050505081526020016001820180546105c490613e9d565b80601f01602080910402602001604051908101604052809291908181526020018280546105f090613e9d565b801561063d5780601f106106125761010080835404028352916020019161063d565b820191906000526020600020905b81548152906001019060200180831161062057829003601f168201915b505050505081526020016002820154815260200160038201548152602001600482015481525050905090565b60606000805461067890613e9d565b80601f01602080910402602001604051908101604052809291908181526020018280546106a490613e9d565b80156106f15780601f106106c6576101008083540402835291602001916106f1565b820191906000526020600020905b8154815290600101906020018083116106d457829003601f168201915b5050505050905090565b600061070682612246565b6004600083815260200190815260200160002060009054906101000a900473ffffffffffffffffffffffffffffffffffffffff169050919050565b600061074c826108d8565b90508073ffffffffffffffffffffffffffffffffffffffff168373ffffffffffffffffffffffffffffffffffffffff16036107bc576040517f08c379a00000000000000000000000000000000000000000000000000000000081526004016107b390613f40565b60405180910390fd5b8073ffffffffffffffffffffffffffffffffffffffff166107db612291565b73ffffffffffffffffffffffffffffffffffffffff16148061080a575061080981610804612291565b611d68565b5b610849576040517f08c379a000000000000000000000000000000000000000000000000000000000815260040161084090613fd2565b60405180910390fd5b6108538383612299565b505050565b610869610863612291565b82612352565b6108a8576040517f08c379a000000000000000000000000000000000000000000000000000000000815260040161089f90614064565b60405180910390fd5b6108b38383836123e7565b505050565b6108d383838360405180602001604052806000815250610d80565b505050565b6000806002600084815260200190815260200160002060009054906101000a900473ffffffffffffffffffffffffffffffffffffffff169050600073ffffffffffffffffffffffffffffffffffffffff168173ffffffffffffffffffffffffffffffffffffffff1603610980576040517f08c379a0000000000000000000000000000000000000000000000000000000008152600401610977906140d0565b60405180910390fd5b80915050919050565b60008073ffffffffffffffffffffffffffffffffffffffff168273ffffffffffffffffffffffffffffffffffffffff16036109f9576040517f08c379a00000000000000000000000000000000000000000000000000000000081526004016109f090614162565b60405180910390fd5b600360008373ffffffffffffffffffffffffffffffffffffffff1673ffffffffffffffffffffffffffffffffffffffff168152602001908152602001600020549050919050565b60096020528060005260406000206000915090505481565b606060018054610a6790613e9d565b80601f0160208091040260200160405190810160405280929190818152602001828054610a9390613e9d565b8015610ae05780601f10610ab557610100808354040283529160200191610ae0565b820191906000526020600020905b815481529060010190602001808311610ac357829003601f168201915b5050505050905090565b6008602052806000526040600020600091509050806000015490806001018054610b1390613e9d565b80601f0160208091040260200160405190810160405280929190818152602001828054610b3f90613e9d565b8015610b8c5780601f10610b6157610100808354040283529160200191610b8c565b820191906000526020600020905b815481529060010190602001808311610b6f57829003601f168201915b505050505090806002018054610ba190613e9d565b80601f0160208091040260200160405190810160405280929190818152602001828054610bcd90613e9d565b8015610c1a5780601f10610bef57610100808354040283529160200191610c1a565b820191906000526020600020905b815481529060010190602001808311610bfd57829003601f168201915b5050505050908060030154908060040154908060050154905086565b610c48610c41612291565b838361264d565b5050565b600a806000018054610c5d90613e9d565b80601f0160208091040260200160405190810160405280929190818152602001828054610c8990613e9d565b8015610cd65780601f10610cab57610100808354040283529160200191610cd6565b820191906000526020600020905b815481529060010190602001808311610cb957829003601f168201915b505050505090806001018054610ceb90613e9d565b80601f0160208091040260200160405190810160405280929190818152602001828054610d1790613e9d565b8015610d645780601f10610d3957610100808354040283529160200191610d64565b820191906000526020600020905b815481529060010190602001808311610d4757829003601f168201915b5050505050908060020154908060030154908060040154905085565b610d91610d8b612291565b83612352565b610dd0576040517f08c379a0000000000000000000000000000000000000000000000000000000008152600401610dc790614064565b60405180910390fd5b610ddc848484846127b9565b50505050565b60606007805480602002602001604051908101604052809291908181526020016000905b82821015610f8457838290600052602060002090600602016040518060c001604052908160008201548152602001600182018054610e4390613e9d565b80601f0160208091040260200160405190810160405280929190818152602001828054610e6f90613e9d565b8015610ebc5780601f10610e9157610100808354040283529160200191610ebc565b820191906000526020600020905b815481529060010190602001808311610e9f57829003601f168201915b50505050508152602001600282018054610ed590613e9d565b80601f0160208091040260200160405190810160405280929190818152602001828054610f0190613e9d565b8015610f4e5780601f10610f2357610100808354040283529160200191610f4e565b820191906000526020600020905b815481529060010190602001808311610f3157829003601f168201915b50505050508152602001600382015481526020016004820154815260200160058201548152505081526020019060010190610e06565b50505050905090565b60606000600860008481526020019081526020016000206040518060c001604052908160008201548152602001600182018054610fc990613e9d565b80601f0160208091040260200160405190810160405280929190818152602001828054610ff590613e9d565b80156110425780601f1061101757610100808354040283529160200191611042565b820191906000526020600020905b81548152906001019060200180831161102557829003601f168201915b5050505050815260200160028201805461105b90613e9d565b80601f016020809104026020016040519081016040528092919081815260200182805461108790613e9d565b80156110d45780601f106110a9576101008083540402835291602001916110d4565b820191906000526020600020905b8154815290600101906020018083116110b757829003601f168201915b5050505050815260200160038201548152602001600482015481526020016005820154815250509050600061110c8260600151612815565b9050600061111d8360800151612815565b9050600061112e8460a00151612815565b90506000611174856020015161114389612815565b876040015187878760405160200161116096959493929190614490565b604051602081830303815290604052612975565b90506000816040516020016111899190614581565b6040516020818303038152906040529050809650505050505050919050565b6111b0613490565b6000600960003373ffffffffffffffffffffffffffffffffffffffff1673ffffffffffffffffffffffffffffffffffffffff168152602001908152602001600020549050600081111561136f57600860008281526020019081526020016000206040518060c00160405290816000820154815260200160018201805461123590613e9d565b80601f016020809104026020016040519081016040528092919081815260200182805461126190613e9d565b80156112ae5780601f10611283576101008083540402835291602001916112ae565b820191906000526020600020905b81548152906001019060200180831161129157829003601f168201915b505050505081526020016002820180546112c790613e9d565b80601f01602080910402602001604051908101604052809291908181526020018280546112f390613e9d565b80156113405780601f1061131557610100808354040283529160200191611340565b820191906000526020600020905b81548152906001019060200180831161132357829003601f168201915b50505050508152602001600382015481526020016004820154815260200160058201548152505091505061137d565b611377613490565b80925050505b90565b6000600960003373ffffffffffffffffffffffffffffffffffffffff1673ffffffffffffffffffffffffffffffffffffffff16815260200190815260200160002054905060006008600083815260200190815260200160002090506114936040518060600160405280603c81526020016152c1603c913982600101805461140690613e9d565b80601f016020809104026020016040519081016040528092919081815260200182805461143290613e9d565b801561147f5780601f106114545761010080835404028352916020019161147f565b820191906000526020600020905b81548152906001019060200180831161146257829003601f168201915b505050505083600301548460050154612b0c565b61156b6040518060400160405280601b81526020017f426f73732025732068617320257320485020616e642025732041440000000000815250600a60000180546114dc90613e9d565b80601f016020809104026020016040519081016040528092919081815260200182805461150890613e9d565b80156115555780601f1061152a57610100808354040283529160200191611555565b820191906000526020600020905b81548152906001019060200180831161153857829003601f168201915b5050505050600a60020154600a60040154612b0c565b60008160030154116115b2576040517f08c379a00000000000000000000000000000000000000000000000000000000081526004016115a990614615565b60405180910390fd5b6000600a60020154116115fa576040517f08c379a00000000000000000000000000000000000000000000000000000000081526004016115f1906146a7565b60405180910390fd5b6117536040518060400160405280601281526020017f2573207377696e67732061742025732e2e2e000000000000000000000000000081525082600101805461164290613e9d565b80601f016020809104026020016040519081016040528092919081815260200182805461166e90613e9d565b80156116bb5780601f10611690576101008083540402835291602001916116bb565b820191906000526020600020905b81548152906001019060200180831161169e57829003601f168201915b5050505050600a60000180546116d090613e9d565b80601f01602080910402602001604051908101604052809291908181526020018280546116fc90613e9d565b80156117495780601f1061171e57610100808354040283529160200191611749565b820191906000526020600020905b81548152906001019060200180831161172c57829003601f168201915b5050505050612bae565b8060050154600a6002015410156117b2576000600a600201819055506117ad6040518060400160405280601181526020017f54686520626f7373206973206465616421000000000000000000000000000000815250612c4d565b611968565b60056117be600a612ce6565b111561189b578060050154600a600201546117d991906146f6565b600a600201819055506118966040518060600160405280602181526020016151e56021913982600101805461180d90613e9d565b80601f016020809104026020016040519081016040528092919081815260200182805461183990613e9d565b80156118865780601f1061185b57610100808354040283529160200191611886565b820191906000526020600020905b81548152906001019060200180831161186957829003601f168201915b5050505050600a60020154612d42565b611967565b6119666040518060400160405280600b81526020017f2573206d6973736564210a0000000000000000000000000000000000000000008152508260010180546118e390613e9d565b80601f016020809104026020016040519081016040528092919081815260200182805461190f90613e9d565b801561195c5780601f106119315761010080835404028352916020019161195c565b820191906000526020600020905b81548152906001019060200180831161193f57829003601f168201915b5050505050612de1565b5b5b611ac16040518060400160405280601281526020017f2573207377696e67732061742025732e2e2e0000000000000000000000000000815250600a60000180546119b190613e9d565b80601f01602080910402602001604051908101604052809291908181526020018280546119dd90613e9d565b8015611a2a5780601f106119ff57610100808354040283529160200191611a2a565b820191906000526020600020905b815481529060010190602001808311611a0d57829003601f168201915b5050505050836001018054611a3e90613e9d565b80601f0160208091040260200160405190810160405280929190818152602001828054611a6a90613e9d565b8015611ab75780601f10611a8c57610100808354040283529160200191611ab7565b820191906000526020600020905b815481529060010190602001808311611a9a57829003601f168201915b5050505050612bae565b600a6004015481600301541015611bac5760008160030181905550611ba76040518060400160405280601081526020017f257320626f737320697320646561642100000000000000000000000000000000815250826001018054611b2490613e9d565b80601f0160208091040260200160405190810160405280929190818152602001828054611b5090613e9d565b8015611b9d5780601f10611b7257610100808354040283529160200191611b9d565b820191906000526020600020905b815481529060010190602001808311611b8057829003601f168201915b5050505050612de1565b611cd3565b6005611bb8600a612ce6565b1115611c9357600a600401548160030154611bd391906146f6565b8160030181905550611c8e6040518060600160405280602181526020016151c460219139826001018054611c0690613e9d565b80601f0160208091040260200160405190810160405280929190818152602001828054611c3290613e9d565b8015611c7f5780601f10611c5457610100808354040283529160200191611c7f565b820191906000526020600020905b815481529060010190602001808311611c6257829003601f168201915b50505050508360030154612d42565b611cd2565b611cd16040518060400160405280600d81526020017f426f7373206d6973736564210a00000000000000000000000000000000000000815250612c4d565b5b5b611cfa60405180606001604052806025815260200161520660259139600a60020154612e7d565b611d2060405180606001604052806028815260200161526b602891398260030154612e7d565b7f32bd565ee3f2cb5ddd742bbecd6048d3e9abe90b3827a40c2b72d232e71e3c9d33600a600201548360030154604051611d5c9392919061472a565b60405180910390a15050565b6000600560008473ffffffffffffffffffffffffffffffffffffffff1673ffffffffffffffffffffffffffffffffffffffff16815260200190815260200160002060008373ffffffffffffffffffffffffffffffffffffffff1673ffffffffffffffffffffffffffffffffffffffff16815260200190815260200160002060009054906101000a900460ff16905092915050565b6000611e086006612f19565b9050611e143382612f27565b6040518060c0016040528083815260200160078481548110611e3957611e38614761565b5b90600052602060002090600602016001018054611e5590613e9d565b80601f0160208091040260200160405190810160405280929190818152602001828054611e8190613e9d565b8015611ece5780601f10611ea357610100808354040283529160200191611ece565b820191906000526020600020905b815481529060010190602001808311611eb157829003601f168201915b5050505050815260200160078481548110611eec57611eeb614761565b5b90600052602060002090600602016002018054611f0890613e9d565b80601f0160208091040260200160405190810160405280929190818152602001828054611f3490613e9d565b8015611f815780601f10611f5657610100808354040283529160200191611f81565b820191906000526020600020905b815481529060010190602001808311611f6457829003601f168201915b5050505050815260200160078481548110611f9f57611f9e614761565b5b906000526020600020906006020160030154815260200160078481548110611fca57611fc9614761565b5b906000526020600020906006020160040154815260200160078481548110611ff557611ff4614761565b5b9060005260206000209060060201600501548152506008600083815260200190815260200160002060008201518160000155602082015181600101908161203c919061493c565b506040820151816002019081612052919061493c565b50606082015181600301556080820151816004015560a082015181600501559050506120976040518060600160405280602e8152602001615293602e91398284612f45565b80600960003373ffffffffffffffffffffffffffffffffffffffff1673ffffffffffffffffffffffffffffffffffffffff168152602001908152602001600020819055506120e560066121c6565b7f4bc303fd457a97b4691b9af582ce71868a3d258638c8d4f8c60988a0f0bfb8cd3382846040516121189392919061472a565b60405180910390a15050565b6121c08484848460405160240161213e9493929190614a0e565b6040516020818303038152906040527f5d1a971a000000000000000000000000000000000000000000000000000000007bffffffffffffffffffffffffffffffffffffffffffffffffffffffff19166020820180517bffffffffffffffffffffffffffffffffffffffffffffffffffffffff8381831617835250505050612fe4565b50505050565b6001816000016000828254019250508190555050565b60007f01ffc9a7000000000000000000000000000000000000000000000000000000007bffffffffffffffffffffffffffffffffffffffffffffffffffffffff1916827bffffffffffffffffffffffffffffffffffffffffffffffffffffffff1916149050919050565b61224f8161300d565b61228e576040517f08c379a0000000000000000000000000000000000000000000000000000000008152600401612285906140d0565b60405180910390fd5b50565b600033905090565b816004600083815260200190815260200160002060006101000a81548173ffffffffffffffffffffffffffffffffffffffff021916908373ffffffffffffffffffffffffffffffffffffffff160217905550808273ffffffffffffffffffffffffffffffffffffffff1661230c836108d8565b73ffffffffffffffffffffffffffffffffffffffff167f8c5be1e5ebec7d5bd14f71427d1e84f3dd0314c0f7b2291e5b200ac8c7c3b92560405160405180910390a45050565b60008061235e836108d8565b90508073ffffffffffffffffffffffffffffffffffffffff168473ffffffffffffffffffffffffffffffffffffffff1614806123a0575061239f8185611d68565b5b806123de57508373ffffffffffffffffffffffffffffffffffffffff166123c6846106fb565b73ffffffffffffffffffffffffffffffffffffffff16145b91505092915050565b8273ffffffffffffffffffffffffffffffffffffffff16612407826108d8565b73ffffffffffffffffffffffffffffffffffffffff161461245d576040517f08c379a000000000000000000000000000000000000000000000000000000000815260040161245490614ada565b60405180910390fd5b600073ffffffffffffffffffffffffffffffffffffffff168273ffffffffffffffffffffffffffffffffffffffff16036124cc576040517f08c379a00000000000000000000000000000000000000000000000000000000081526004016124c390614b6c565b60405180910390fd5b6124d7838383613079565b6124e2600082612299565b6001600360008573ffffffffffffffffffffffffffffffffffffffff1673ffffffffffffffffffffffffffffffffffffffff168152602001908152602001600020600082825461253291906146f6565b925050819055506001600360008473ffffffffffffffffffffffffffffffffffffffff1673ffffffffffffffffffffffffffffffffffffffff16815260200190815260200160002060008282546125899190614b8c565b92505081905550816002600083815260200190815260200160002060006101000a81548173ffffffffffffffffffffffffffffffffffffffff021916908373ffffffffffffffffffffffffffffffffffffffff160217905550808273ffffffffffffffffffffffffffffffffffffffff168473ffffffffffffffffffffffffffffffffffffffff167fddf252ad1be2c89b69c2b068fc378daa952ba7f163c4a11628f55a4df523b3ef60405160405180910390a461264883838361307e565b505050565b8173ffffffffffffffffffffffffffffffffffffffff168373ffffffffffffffffffffffffffffffffffffffff16036126bb576040517f08c379a00000000000000000000000000000000000000000000000000000000081526004016126b290614c0c565b60405180910390fd5b80600560008573ffffffffffffffffffffffffffffffffffffffff1673ffffffffffffffffffffffffffffffffffffffff16815260200190815260200160002060008473ffffffffffffffffffffffffffffffffffffffff1673ffffffffffffffffffffffffffffffffffffffff16815260200190815260200160002060006101000a81548160ff0219169083151502179055508173ffffffffffffffffffffffffffffffffffffffff168373ffffffffffffffffffffffffffffffffffffffff167f17307eab39ab6107e8899845ad3d59bd9653f200f220920489ca2b5937696c31836040516127ac919061357a565b60405180910390a3505050565b6127c48484846123e7565b6127d084848484613083565b61280f576040517f08c379a000000000000000000000000000000000000000000000000000000000815260040161280690614c9e565b60405180910390fd5b50505050565b60606000820361285c576040518060400160405280600181526020017f30000000000000000000000000000000000000000000000000000000000000008152509050612970565b600082905060005b6000821461288e57808061287790614cbe565b915050600a826128879190614d35565b9150612864565b60008167ffffffffffffffff8111156128aa576128a9613a5a565b5b6040519080825280601f01601f1916602001820160405280156128dc5781602001600182028036833780820191505090505b5090505b60008514612969576001826128f591906146f6565b9150600a856129049190614d66565b60306129109190614b8c565b60f81b81838151811061292657612925614761565b5b60200101907effffffffffffffffffffffffffffffffffffffffffffffffffffffffffffff1916908160001a905350600a856129629190614d35565b94506128e0565b8093505050505b919050565b60606000825190506000810361299d5760405180602001604052806000815250915050612b07565b600060036002836129ae9190614b8c565b6129b89190614d35565b60046129c49190614d97565b905060006020826129d59190614b8c565b67ffffffffffffffff8111156129ee576129ed613a5a565b5b6040519080825280601f01601f191660200182016040528015612a205781602001600182028036833780820191505090505b509050600060405180606001604052806040815260200161522b604091399050600181016020830160005b86811015612ac45760038101905062ffffff818a015116603f8160121c168401518060081b905060ff603f83600c1c1686015116810190508060081b905060ff603f8360061c1686015116810190508060081b905060ff603f831686015116810190508060e01b90508084526004840193505050612a4b565b506003860660018114612ade5760028114612aee57612af9565b613d3d60f01b6002830352612af9565b603d60f81b60018303525b508484525050819450505050505b919050565b612ba884848484604051602401612b269493929190614dd9565b6040516020818303038152906040527ff45d7d2c000000000000000000000000000000000000000000000000000000007bffffffffffffffffffffffffffffffffffffffffffffffffffffffff19166020820180517bffffffffffffffffffffffffffffffffffffffffffffffffffffffff8381831617835250505050612fe4565b50505050565b612c48838383604051602401612bc693929190614e2c565b6040516020818303038152906040527f2ced7cef000000000000000000000000000000000000000000000000000000007bffffffffffffffffffffffffffffffffffffffffffffffffffffffff19166020820180517bffffffffffffffffffffffffffffffffffffffffffffffffffffffff8381831617835250505050612fe4565b505050565b612ce381604051602401612c619190613727565b6040516020818303038152906040527f41304fac000000000000000000000000000000000000000000000000000000007bffffffffffffffffffffffffffffffffffffffffffffffffffffffff19166020820180517bffffffffffffffffffffffffffffffffffffffffffffffffffffffff8381831617835250505050612fe4565b50565b6000600f6000815480929190612cfb90614cbe565b9190505550814233600f54604051602001612d1893929190614ee1565b6040516020818303038152906040528051906020012060001c612d3b9190614d66565b9050919050565b612ddc838383604051602401612d5a93929190614f1e565b6040516020818303038152906040527f5821efa1000000000000000000000000000000000000000000000000000000007bffffffffffffffffffffffffffffffffffffffffffffffffffffffff19166020820180517bffffffffffffffffffffffffffffffffffffffffffffffffffffffff8381831617835250505050612fe4565b505050565b612e798282604051602401612df7929190614f63565b6040516020818303038152906040527f4b5c4277000000000000000000000000000000000000000000000000000000007bffffffffffffffffffffffffffffffffffffffffffffffffffffffff19166020820180517bffffffffffffffffffffffffffffffffffffffffffffffffffffffff8381831617835250505050612fe4565b5050565b612f158282604051602401612e93929190614f9a565b6040516020818303038152906040527fb60e72cc000000000000000000000000000000000000000000000000000000007bffffffffffffffffffffffffffffffffffffffffffffffffffffffff19166020820180517bffffffffffffffffffffffffffffffffffffffffffffffffffffffff8381831617835250505050612fe4565b5050565b600081600001549050919050565b612f4182826040518060200160405280600081525061320a565b5050565b612fdf838383604051602401612f5d93929190614fca565b6040516020818303038152906040527fca47c4eb000000000000000000000000000000000000000000000000000000007bffffffffffffffffffffffffffffffffffffffffffffffffffffffff19166020820180517bffffffffffffffffffffffffffffffffffffffffffffffffffffffff8381831617835250505050612fe4565b505050565b60008151905060006a636f6e736f6c652e6c6f679050602083016000808483855afa5050505050565b60008073ffffffffffffffffffffffffffffffffffffffff166002600084815260200190815260200160002060009054906101000a900473ffffffffffffffffffffffffffffffffffffffff1673ffffffffffffffffffffffffffffffffffffffff1614159050919050565b505050565b505050565b60006130a48473ffffffffffffffffffffffffffffffffffffffff16613265565b156131fd578373ffffffffffffffffffffffffffffffffffffffff1663150b7a026130cd612291565b8786866040518563ffffffff1660e01b81526004016130ef949392919061505d565b6020604051808303816000875af192505050801561312b57506040513d601f19601f8201168201806040525081019061312891906150be565b60015b6131ad573d806000811461315b576040519150601f19603f3d011682016040523d82523d6000602084013e613160565b606091505b5060008151036131a5576040517f08c379a000000000000000000000000000000000000000000000000000000000815260040161319c90614c9e565b60405180910390fd5b805181602001fd5b63150b7a0260e01b7bffffffffffffffffffffffffffffffffffffffffffffffffffffffff1916817bffffffffffffffffffffffffffffffffffffffffffffffffffffffff191614915050613202565b600190505b949350505050565b6132148383613288565b6132216000848484613083565b613260576040517f08c379a000000000000000000000000000000000000000000000000000000000815260040161325790614c9e565b60405180910390fd5b505050565b6000808273ffffffffffffffffffffffffffffffffffffffff163b119050919050565b600073ffffffffffffffffffffffffffffffffffffffff168273ffffffffffffffffffffffffffffffffffffffff16036132f7576040517f08c379a00000000000000000000000000000000000000000000000000000000081526004016132ee90615137565b60405180910390fd5b6133008161300d565b15613340576040517f08c379a0000000000000000000000000000000000000000000000000000000008152600401613337906151a3565b60405180910390fd5b61334c60008383613079565b6001600360008473ffffffffffffffffffffffffffffffffffffffff1673ffffffffffffffffffffffffffffffffffffffff168152602001908152602001600020600082825461339c9190614b8c565b92505081905550816002600083815260200190815260200160002060006101000a81548173ffffffffffffffffffffffffffffffffffffffff021916908373ffffffffffffffffffffffffffffffffffffffff160217905550808273ffffffffffffffffffffffffffffffffffffffff16600073ffffffffffffffffffffffffffffffffffffffff167fddf252ad1be2c89b69c2b068fc378daa952ba7f163c4a11628f55a4df523b3ef60405160405180910390a461345d6000838361307e565b5050565b6040518060a0016040528060608152602001606081526020016000815260200160008152602001600081525090565b6040518060c001604052806000815260200160608152602001606081526020016000815260200160008152602001600081525090565b6000604051905090565b600080fd5b600080fd5b60007fffffffff0000000000000000000000000000000000000000000000000000000082169050919050565b61350f816134da565b811461351a57600080fd5b50565b60008135905061352c81613506565b92915050565b600060208284031215613548576135476134d0565b5b60006135568482850161351d565b91505092915050565b60008115159050919050565b6135748161355f565b82525050565b600060208201905061358f600083018461356b565b92915050565b600081519050919050565b600082825260208201905092915050565b60005b838110156135cf5780820151818401526020810190506135b4565b60008484015250505050565b6000601f19601f8301169050919050565b60006135f782613595565b61360181856135a0565b93506136118185602086016135b1565b61361a816135db565b840191505092915050565b6000819050919050565b61363881613625565b82525050565b600060a083016000830151848203600086015261365b82826135ec565b9150506020830151848203602086015261367582826135ec565b915050604083015161368a604086018261362f565b50606083015161369d606086018261362f565b5060808301516136b0608086018261362f565b508091505092915050565b600060208201905081810360008301526136d5818461363e565b905092915050565b600082825260208201905092915050565b60006136f982613595565b61370381856136dd565b93506137138185602086016135b1565b61371c816135db565b840191505092915050565b6000602082019050818103600083015261374181846136ee565b905092915050565b61375281613625565b811461375d57600080fd5b50565b60008135905061376f81613749565b92915050565b60006020828403121561378b5761378a6134d0565b5b600061379984828501613760565b91505092915050565b600073ffffffffffffffffffffffffffffffffffffffff82169050919050565b60006137cd826137a2565b9050919050565b6137dd816137c2565b82525050565b60006020820190506137f860008301846137d4565b92915050565b613807816137c2565b811461381257600080fd5b50565b600081359050613824816137fe565b92915050565b60008060408385031215613841576138406134d0565b5b600061384f85828601613815565b925050602061386085828601613760565b9150509250929050565b600080600060608486031215613883576138826134d0565b5b600061389186828701613815565b93505060206138a286828701613815565b92505060406138b386828701613760565b9150509250925092565b6000602082840312156138d3576138d26134d0565b5b60006138e184828501613815565b91505092915050565b6138f381613625565b82525050565b600060208201905061390e60008301846138ea565b92915050565b600060c08201905061392960008301896138ea565b818103602083015261393b81886136ee565b9050818103604083015261394f81876136ee565b905061395e60608301866138ea565b61396b60808301856138ea565b61397860a08301846138ea565b979650505050505050565b61398c8161355f565b811461399757600080fd5b50565b6000813590506139a981613983565b92915050565b600080604083850312156139c6576139c56134d0565b5b60006139d485828601613815565b92505060206139e58582860161399a565b9150509250929050565b600060a0820190508181036000830152613a0981886136ee565b90508181036020830152613a1d81876136ee565b9050613a2c60408301866138ea565b613a3960608301856138ea565b613a4660808301846138ea565b9695505050505050565b600080fd5b600080fd5b7f4e487b7100000000000000000000000000000000000000000000000000000000600052604160045260246000fd5b613a92826135db565b810181811067ffffffffffffffff82111715613ab157613ab0613a5a565b5b80604052505050565b6000613ac46134c6565b9050613ad08282613a89565b919050565b600067ffffffffffffffff821115613af057613aef613a5a565b5b613af9826135db565b9050602081019050919050565b82818337600083830152505050565b6000613b28613b2384613ad5565b613aba565b905082815260208101848484011115613b4457613b43613a55565b5b613b4f848285613b06565b509392505050565b600082601f830112613b6c57613b6b613a50565b5b8135613b7c848260208601613b15565b91505092915050565b60008060008060808587031215613b9f57613b9e6134d0565b5b6000613bad87828801613815565b9450506020613bbe87828801613815565b9350506040613bcf87828801613760565b925050606085013567ffffffffffffffff811115613bf057613bef6134d5565b5b613bfc87828801613b57565b91505092959194509250565b600081519050919050565b600082825260208201905092915050565b6000819050602082019050919050565b600060c083016000830151613c4c600086018261362f565b5060208301518482036020860152613c6482826135ec565b91505060408301518482036040860152613c7e82826135ec565b9150506060830151613c93606086018261362f565b506080830151613ca6608086018261362f565b5060a0830151613cb960a086018261362f565b508091505092915050565b6000613cd08383613c34565b905092915050565b6000602082019050919050565b6000613cf082613c08565b613cfa8185613c13565b935083602082028501613d0c85613c24565b8060005b85811015613d485784840389528151613d298582613cc4565b9450613d3483613cd8565b925060208a01995050600181019050613d10565b50829750879550505050505092915050565b60006020820190508181036000830152613d748184613ce5565b905092915050565b600060c083016000830151613d94600086018261362f565b5060208301518482036020860152613dac82826135ec565b91505060408301518482036040860152613dc682826135ec565b9150506060830151613ddb606086018261362f565b506080830151613dee608086018261362f565b5060a0830151613e0160a086018261362f565b508091505092915050565b60006020820190508181036000830152613e268184613d7c565b905092915050565b60008060408385031215613e4557613e446134d0565b5b6000613e5385828601613815565b9250506020613e6485828601613815565b9150509250929050565b7f4e487b7100000000000000000000000000000000000000000000000000000000600052602260045260246000fd5b60006002820490506001821680613eb557607f821691505b602082108103613ec857613ec7613e6e565b5b50919050565b7f4552433732313a20617070726f76616c20746f2063757272656e74206f776e6560008201527f7200000000000000000000000000000000000000000000000000000000000000602082015250565b6000613f2a6021836136dd565b9150613f3582613ece565b604082019050919050565b60006020820190508181036000830152613f5981613f1d565b9050919050565b7f4552433732313a20617070726f76652063616c6c6572206973206e6f7420746f60008201527f6b656e206f776e6572206e6f7220617070726f76656420666f7220616c6c0000602082015250565b6000613fbc603e836136dd565b9150613fc782613f60565b604082019050919050565b60006020820190508181036000830152613feb81613faf565b9050919050565b7f4552433732313a2063616c6c6572206973206e6f7420746f6b656e206f776e6560008201527f72206e6f7220617070726f766564000000000000000000000000000000000000602082015250565b600061404e602e836136dd565b915061405982613ff2565b604082019050919050565b6000602082019050818103600083015261407d81614041565b9050919050565b7f4552433732313a20696e76616c696420746f6b656e2049440000000000000000600082015250565b60006140ba6018836136dd565b91506140c582614084565b602082019050919050565b600060208201905081810360008301526140e9816140ad565b9050919050565b7f4552433732313a2061646472657373207a65726f206973206e6f74206120766160008201527f6c6964206f776e65720000000000000000000000000000000000000000000000602082015250565b600061414c6029836136dd565b9150614157826140f0565b604082019050919050565b6000602082019050818103600083015261417b8161413f565b9050919050565b600081905092915050565b7f7b226e616d65223a202200000000000000000000000000000000000000000000600082015250565b60006141c3600a83614182565b91506141ce8261418d565b600a82019050919050565b60006141e482613595565b6141ee8185614182565b93506141fe8185602086016135b1565b80840191505092915050565b7f202d2d204e465420233a20000000000000000000000000000000000000000000600082015250565b6000614240600b83614182565b915061424b8261420a565b600b82019050919050565b7f222c20226465736372697074696f6e223a20225468697320697320616e204e4660008201527f542074686174206c6574732070656f706c6520706c617920696e20746865206760208201527f616d65204d657461766572736520536c6179657221222c2022696d616765223a60408201527f2022697066733a2f2f0000000000000000000000000000000000000000000000606082015250565b60006142fe606983614182565b915061430982614256565b606982019050919050565b7f222c202261747472696275746573223a205b207b202274726169745f7479706560008201527f223a20224865616c746820506f696e7473222c202276616c7565223a20000000602082015250565b6000614370603d83614182565b915061437b82614314565b603d82019050919050565b7f2c20226d61785f76616c7565223a000000000000000000000000000000000000600082015250565b60006143bc600e83614182565b91506143c782614386565b600e82019050919050565b7f7d2c207b202274726169745f74797065223a202241747461636b2044616d616760008201527f65222c202276616c7565223a2000000000000000000000000000000000000000602082015250565b600061442e602d83614182565b9150614439826143d2565b602d82019050919050565b7f7d205d7d00000000000000000000000000000000000000000000000000000000600082015250565b600061447a600483614182565b915061448582614444565b600482019050919050565b600061449b826141b6565b91506144a782896141d9565b91506144b282614233565b91506144be82886141d9565b91506144c9826142f1565b91506144d582876141d9565b91506144e082614363565b91506144ec82866141d9565b91506144f7826143af565b915061450382856141d9565b915061450e82614421565b915061451a82846141d9565b91506145258261446d565b9150819050979650505050505050565b7f646174613a6170706c69636174696f6e2f6a736f6e3b6261736536342c000000600082015250565b600061456b601d83614182565b915061457682614535565b601d82019050919050565b600061458c8261455e565b915061459882846141d9565b915081905092915050565b7f4572726f723a20636861726163746572206d757374206861766520485020746f60008201527f2061747461636b20626f73732e00000000000000000000000000000000000000602082015250565b60006145ff602d836136dd565b915061460a826145a3565b604082019050919050565b6000602082019050818103600083015261462e816145f2565b9050919050565b7f4572726f723a20626f7373206d757374206861766520485020746f206174746160008201527f636b206368617261637465722e00000000000000000000000000000000000000602082015250565b6000614691602d836136dd565b915061469c82614635565b604082019050919050565b600060208201905081810360008301526146c081614684565b9050919050565b7f4e487b7100000000000000000000000000000000000000000000000000000000600052601160045260246000fd5b600061470182613625565b915061470c83613625565b9250828203905081811115614724576147236146c7565b5b92915050565b600060608201905061473f60008301866137d4565b61474c60208301856138ea565b61475960408301846138ea565b949350505050565b7f4e487b7100000000000000000000000000000000000000000000000000000000600052603260045260246000fd5b60008190508160005260206000209050919050565b60006020601f8301049050919050565b600082821b905092915050565b6000600883026147f27fffffffffffffffffffffffffffffffffffffffffffffffffffffffffffffffff826147b5565b6147fc86836147b5565b95508019841693508086168417925050509392505050565b6000819050919050565b600061483961483461482f84613625565b614814565b613625565b9050919050565b6000819050919050565b6148538361481e565b61486761485f82614840565b8484546147c2565b825550505050565b600090565b61487c61486f565b61488781848461484a565b505050565b5b818110156148ab576148a0600082614874565b60018101905061488d565b5050565b601f8211156148f0576148c181614790565b6148ca846147a5565b810160208510156148d9578190505b6148ed6148e5856147a5565b83018261488c565b50505b505050565b600082821c905092915050565b6000614913600019846008026148f5565b1980831691505092915050565b600061492c8383614902565b9150826002028217905092915050565b61494582613595565b67ffffffffffffffff81111561495e5761495d613a5a565b5b6149688254613e9d565b6149738282856148af565b600060209050601f8311600181146149a65760008415614994578287015190505b61499e8582614920565b865550614a06565b601f1984166149b486614790565b60005b828110156149dc578489015182556001820191506020850194506020810190506149b7565b868310156149f957848901516149f5601f891682614902565b8355505b6001600288020188555050505b505050505050565b60006080820190508181036000830152614a2881876136ee565b90508181036020830152614a3c81866136ee565b9050614a4b60408301856138ea565b8181036060830152614a5d81846136ee565b905095945050505050565b7f4552433732313a207472616e736665722066726f6d20696e636f72726563742060008201527f6f776e6572000000000000000000000000000000000000000000000000000000602082015250565b6000614ac46025836136dd565b9150614acf82614a68565b604082019050919050565b60006020820190508181036000830152614af381614ab7565b9050919050565b7f4552433732313a207472616e7366657220746f20746865207a65726f2061646460008201527f7265737300000000000000000000000000000000000000000000000000000000602082015250565b6000614b566024836136dd565b9150614b6182614afa565b604082019050919050565b60006020820190508181036000830152614b8581614b49565b9050919050565b6000614b9782613625565b9150614ba283613625565b9250828201905080821115614bba57614bb96146c7565b5b92915050565b7f4552433732313a20617070726f766520746f2063616c6c657200000000000000600082015250565b6000614bf66019836136dd565b9150614c0182614bc0565b602082019050919050565b60006020820190508181036000830152614c2581614be9565b9050919050565b7f4552433732313a207472616e7366657220746f206e6f6e20455243373231526560008201527f63656976657220696d706c656d656e7465720000000000000000000000000000602082015250565b6000614c886032836136dd565b9150614c9382614c2c565b604082019050919050565b60006020820190508181036000830152614cb781614c7b565b9050919050565b6000614cc982613625565b91507fffffffffffffffffffffffffffffffffffffffffffffffffffffffffffffffff8203614cfb57614cfa6146c7565b5b600182019050919050565b7f4e487b7100000000000000000000000000000000000000000000000000000000600052601260045260246000fd5b6000614d4082613625565b9150614d4b83613625565b925082614d5b57614d5a614d06565b5b828204905092915050565b6000614d7182613625565b9150614d7c83613625565b925082614d8c57614d8b614d06565b5b828206905092915050565b6000614da282613625565b9150614dad83613625565b9250828202614dbb81613625565b91508282048414831517614dd257614dd16146c7565b5b5092915050565b60006080820190508181036000830152614df381876136ee565b90508181036020830152614e0781866136ee565b9050614e1660408301856138ea565b614e2360608301846138ea565b95945050505050565b60006060820190508181036000830152614e4681866136ee565b90508181036020830152614e5a81856136ee565b90508181036040830152614e6e81846136ee565b9050949350505050565b6000819050919050565b614e93614e8e82613625565b614e78565b82525050565b60008160601b9050919050565b6000614eb182614e99565b9050919050565b6000614ec382614ea6565b9050919050565b614edb614ed6826137c2565b614eb8565b82525050565b6000614eed8286614e82565b602082019150614efd8285614eca565b601482019150614f0d8284614e82565b602082019150819050949350505050565b60006060820190508181036000830152614f3881866136ee565b90508181036020830152614f4c81856136ee565b9050614f5b60408301846138ea565b949350505050565b60006040820190508181036000830152614f7d81856136ee565b90508181036020830152614f9181846136ee565b90509392505050565b60006040820190508181036000830152614fb481856136ee565b9050614fc360208301846138ea565b9392505050565b60006060820190508181036000830152614fe481866136ee565b9050614ff360208301856138ea565b61500060408301846138ea565b949350505050565b600081519050919050565b600082825260208201905092915050565b600061502f82615008565b6150398185615013565b93506150498185602086016135b1565b615052816135db565b840191505092915050565b600060808201905061507260008301876137d4565b61507f60208301866137d4565b61508c60408301856138ea565b818103606083015261509e8184615024565b905095945050505050565b6000815190506150b881613506565b92915050565b6000602082840312156150d4576150d36134d0565b5b60006150e2848285016150a9565b91505092915050565b7f4552433732313a206d696e7420746f20746865207a65726f2061646472657373600082015250565b60006151216020836136dd565b915061512c826150eb565b602082019050919050565b6000602082019050818103600083015261515081615114565b9050919050565b7f4552433732313a20746f6b656e20616c7265616479206d696e74656400000000600082015250565b600061518d601c836136dd565b915061519882615157565b602082019050919050565b600060208201905081810360008301526151bc81615180565b905091905056fe426f73732061747461636b65642025732e204e657720626f73732068703a20257325732061747461636b656420626f73732e204e657720626f73732068703a202573506c617965722061747461636b656420626f73732e204e657720626f73732068703a2025734142434445464748494a4b4c4d4e4f505152535455565758595a6162636465666768696a6b6c6d6e6f707172737475767778797a303132333435363738392b2f426f73732061747461636b656420706c617965722e204e657720706c617965722068703a2025730a4d696e746564204e465420772f20746f6b656e496420257320616e6420636861726163746572496e6465782025730a506c6179657220772f206368617261637465722025732061626f757420746f2061747461636b2e2048617320257320485020616e64202573204144a26469706673582212202d70b34e52bf13a366666b094f807b5a8840dd0044264008c2a1f953642e341164736f6c63430008110033446f6e6520696e697469616c697a696e6720257320772f2048502025732c20696d67202573446f6e6520696e697469616c697a696e6720626f737320257320772f2048502025732c20696d67202573",
  "linkReferences": {},
  "deployedLinkReferences": {}
}